:020000040800F2
:1000000000500020890D0008F50C0008FB0C0008CA
:10001000010D0008070D00080D0D0008000000008C
:10002000000000000000000000000000130D0008A8
:100030001F0D0008000000002B0D0008390D0008FE
:10004000D10D0008D10D0008D10D0008D10D000818
:10005000D10D0008D10D0008D10D0008D10D000808
:10006000D10D0008D10D0008D10D0008D10D0008F8
:10007000D10D0008D10D0008D10D0008D10D0008E8
:10008000D10D0008D10D0008D10D0008D10D0008D8
:10009000550D0008690D0008D10D0008D10D0008AC
:1000A000D10D0008D10D0008D10D0008D10D0008B8
:1000B000D10D0008D10D0008D10D0008D10D0008A8
:1000C000D10D0008D10D0008D10D0008D10D000898
:1000D000D10D0008D10D0008D10D0008D10D000888
:1000E000D10D0008D10D0008D10D0008000000005E
:1000F0000000000000000000000000000000000000
:0C01000000000000000000005FF808F1A3
:10010C0010B5054C237833B9044B13B10448AFF345
:10011C0000800123237010BD1C0000200000000093
:10012C00B428000808B5034B1BB103490348AFF3CF
:10013C00008008BD0000000020000020B42800084A
:10014C0080B582B000AF0423FB7106E0FB79184642
:10015C0000F00CF8FB790133FB71FB793F2BF5D9DF
:10016C0000BF00BF0837BD4680BD000080B483B01F
:10017C0000AF0346FB7100BF1E4BDB6803F00103AD
:10018C00012BF9D01B4B1B69DB0903F00103012B7D
:10019C0005D1184B184A5A60164B184A5A60154B21
:1001AC001B69144A43F002031361FB799B02114A49
:1001BC0003F1006353610F4B1B690E4A43F040037C
:1001CC00136100BF0B4BDB6803F00103012BF9D06B
:1001DC00084BDB68074A43F02003D360054B1B69CF
:1001EC00044A23F00203136100BF0C37BD4680BCE8
:1001FC00704700BF0020024023016745AB89EFCD5B
:10020C0080B487B000AFF860B9601346FB7100BFD3
:10021C00224BDB6803F00103012BF9D01F4B1B6948
:10022C00DB0903F00103012B05D11C4B1C4A5A605E
:10023C001A4B1C4A5A600023FB7525E0174B1B69AF
:10024C00164A43F001031361FB7D5B00BA681A4444
:10025C00FB6812881A80FB680233FB6000BF0F4BEF
:10026C00DB6803F00103012BF9D00C4BDB680B4A64
:10027C0043F02003D360094B1B69084A23F00103A8
:10028C001361FB7D0133FB75FA7DFB799A42D5D363
:10029C0000BF00BF1C37BD4680BC70470020024029
:1002AC0023016745AB89EFCD80B483B000AF034623
:1002BC00FB710B46BB7113467B71FB79022B7AD019
:1002CC00022B00F3B180002B02D0012B3AD0ABE013
:1002DC00BB79072B17D85A4B1B68BA7992000F21A0
:1002EC0001FA02F2D2431146554A0B401360544BAB
:1002FC001B687979BA79920001FA02F21146504AD8
:10030C000B43136092E0BB790F2B00F28F80BB790B
:10031C00083BBB714B4B1B68BA7992000F2101FA59
:10032C0002F2D2431146474A0B401360454B1B68FF
:10033C007979BA79920001FA02F21146414A0B43DB
:10034C00136073E0BB79072B17D83F4B1B68BA7946
:10035C0092000F2101FA02F2D24311463A4A0B40A5
:10036C001360394B1B687979BA79920001FA02F261
:10037C001146354A0B4313605AE0BB790F2B57D803
:10038C00BB79083BBB71314B1B68BA7992000F21CA
:10039C0001FA02F2D24311462C4A0B4013602B4B4C
:1003AC001B687979BA79920001FA02F21146274A50
:1003BC000B4313603CE0BB79072B17D8244B1B680D
:1003CC00BA7992000F2101FA02F2D2431146204A67
:1003DC000B4013601E4B1B687979BA79920001FAB5
:1003EC0002F211461A4A0B43136023E0BB790F2B20
:1003FC0020D8BB79083BBB71164B1B68BA799200AD
:10040C000F2101FA02F2D2431146124A0B4013603B
:10041C00104B1B687979BA79920001FA02F21146F5
:10042C000C4A0B43136005E000BF04E000BF02E080
:10043C0000BF00E000BF00BF0C37BD4680BC70475A
:10044C000008014004080140000C0140040C01406C
:10045C00001001400410014080B485B000AF034689
:10046C00FB71FB792F2B06D9FB79392B03D8FB7940
:10047C00303BFB7302E0FB79373BFB73FB7B18468D
:10048C001437BD4680BC704780B586B000AF78602D
:10049C000023BB757B6801331B781846FFF7DCFF24
:1004AC0003467B757B6802331B781846FFF7D4FF35
:1004BC0003463B757B7D1B015AB297F914301343ED
:1004CC005BB2FB747B6803331B781846FFF7C4FFE1
:1004DC000346BB747B6804331B781846FFF7BCFFDC
:1004EC0003467B747B6805331B781846FFF7B4FF13
:1004FC0003463B747B6806331B781846FFF7ACFF4A
:10050C000346FB73394B1B681B0C1B04374A1360E7
:10051C00FA7B364B1B6813433A7C120113437A7CEB
:10052C0012021343BA7C12031343304A13600023A4
:10053C00FB7547E0FB7D9B0009337A6813441B78FD
:10054C001846FFF789FF0346BB74FB7D9B000A33FB
:10055C007A6813441B781846FFF77EFF03467B74BA
:10056C00FB7D9B000B337A6813441B781846FFF70E
:10057C0073FF03463B74FB7D9B000C337A6813447A
:10058C001B781846FFF768FF0346FB73FB7B1B02C7
:10059C001AB23B7C1B031BB213431AB27B7C1BB2FB
:1005AC0013431AB2BB7C1B011BB213431AB2BB7DA3
:1005BC0091B20F4A22F81310BB7D0133BB75FB7D42
:1005CC000133FB75FB7C5B08DBB2FA7D9A42B1D33D
:1005DC00064B1868FB7C5B08DBB21A460449FFF734
:1005EC000FFE00BF1837BD4680BD00BF00000020C5
:1005FC003800002080B483B000AF786000BF0C37A7
:10060C00BD4680BC704780B582B000AF78607B6817
:10061C0008331B78302B02D0342B04D007E07868D9
:10062C00FFF732FF03E07868FFF7E4FF00BF00BF7D
:10063C000837BD4680BD000080B400AF044B81225A
:10064C001A60044B00221A6000BFBD4680BC704784
:10065C00001002400410024080B483B000AF034687
:10066C000A46FB711346BB71BB791F2B2AD8FB7949
:10067C00022B1CD0022B25DC002B02D0012B0BD023
:10068C0020E0134B1B68BA79012101FA02F21146E2
:10069C000F4A0B43136015E00E4B1B68BA7901210E
:1006AC0001FA02F211460B4A0B4313600AE00A4BA3
:1006BC001B68BA79012101FA02F21146064A0B4372
:1006CC00136000BF00BF0C37BD4680BC704700BF35
:1006DC00141002401C1002401810024080B400AFED
:1006EC00034B00221A6000BFBD4680BC704700BFA0
:1006FC0010E000E080B483B000AF78603960134B39
:10070C001B68124A23F001031360104B00225A603D
:10071C000E4B00229A600D4A7B6853600B4B1B6892
:10072C000A4A43F001031360094A3B681360094B02
:10073C0000221A70054B1B68044A43F00203136035
:10074C0000BF0C37BD4680BC704700BF10E000E016
:10075C00000100200401002080B400AF0A4B1B688C
:10076C00094A23F002031360074B1B68064A43F047
:10077C0001031360044B00225A60034B00229A6061
:10078C0000BFBD4680BC704710E000E080B400AFF5
:10079C000E4B40F241329A600C4BDB680B4A43F033
:1007AC000803D360094BDB68084A43F00403D360A9
:1007BC00064BDB68054A43F40053D360034B00221D
:1007CC001A6000BFBD4680BC704700BF00380140B6
:1007DC0080B485B000AF78600023FB730FE0FB7B27
:1007EC007A6813441A780C4B5A6000BF0A4B1B688A
:1007FC0003F04003002BF9D0FB7B0133FB73FB7B35
:10080C007A6813441B78002BE9D100BF00BF143762
:10081C00BD4680BC704700BF0038014080B485B035
:10082C0000AF78600123FB730A4B1B685B0903F074
:10083C000103012B05D1074B5B68DAB27B681A7098
:10084C0001E00023FB73FB7B18461437BD4680BCCC
:10085C00704700BF0038014080B500AF054B064A19
:10086C001A60064B1B68064A1360054B1B689847B9
:10087C0000BF80BD08ED00E0001000080410000867
:10088C009801002080B582B000AF78600A4B0B4A0B
:10089C000021786800F0D1FD084B1B6840F2222241
:1008AC00934204D14FF40051022001F0D9FB00BF58
:1008BC000837BD4680BD00BF10020020F4010020A7
:1008CC0080B582B000AFFFF7B7FE0E210220FFF714
:1008DC00C3FE02210220FFF7BFFE04210020FFF718
:1008EC00BBFE0A2209210020FFF7DEFC04220A21AC
:1008FC000020FFF7D9FCFFF749FFFFF7EFFE3A495D
:10090C003A48FFF7F7FE37E0394B1B78DBB21A4653
:10091C00384B13441846FFF781FF0346FB71FB79F4
:10092C00012B29D1FFF718FF314B1B78DBB21A468C
:10093C00304B9B5CDBB20A2B13D12F4B1B78DBB2F9
:10094C00012B04D1FFF7FCFB2B4B00221A7029481A
:10095C00FFF759FE2948FFF73BFF254B00221A7081
:10096C0006E0234B1B78DBB20133DAB2204B1A7052
:10097C001D491E48FFF7BEFE214B1B78DBB2002B36
:10098C00C2D000F021FA00F047F800F0D1F800F0E6
:10099C007DF81C4800F03EFC02211A4800F06EFE67
:1009AC00194B40F211121A60174B08221A61164BA0
:1009BC0000225A60144B0022DA60134B00229A601A
:1009CC00114B00221A75114B1B68B3F57A7FFAD1C3
:1009DC000F4B104A0C490B4800F060FC0B4B0022EB
:1009EC001A6000BFEFE700BF65080008C0E1E40033
:1009FC00940100203001002004000020CC280008C5
:100A0C009501002008010020A00100209C0100207D
:100A1C00E80100200800002080B590B000AF07F17D
:100A2C00180328220021184601F012FF3B1D00225A
:100A3C001A605A609A60DA601A610123BB614FF444
:100A4C008033FB6100237B6307F11803184601F028
:100A5C0021FB0346002B01D000F0B2F80F237B6082
:100A6C000123BB600023FB6000233B6100237B61FF
:100A7C003B1D0021184601F08FFD0346002B01D0D1
:100A8C0000F09EF800BF4037BD4680BD80B58AB0EF
:100A9C0000AF254B254A1A60234B04225A60224B87
:100AAC0000229A60204B0022DA601F4B4FF48032F8
:100ABC001A611D4B00225A611B4B00221A761A4BED
:100ACC0000225A76184B00229A76174B0022DA76BF
:100ADC00154B00221A77144B00225A77124800F05B
:100AEC00D5F90346002B01D000F06AF801233B62D4
:100AFC0000237B6100233B6100233B6000237B6070
:100B0C000023BB600023FB600023BB610123FB615E
:100B1C000D237B623B461946034800F0B2FA00BF36
:100B2C002837BD4680BD00BF08010020006400408E
:100B3C0080B588B000AF07F1100300221A605A602C
:100B4C009A60DA601D4B9B691C4A43F480339361B5
:100B5C001A4B9B6903F01003FB60FB68174B174A99
:100B6C009B699361154B9B6903F02003BB60BB68C9
:100B7C00124B9B69114A43F0100393610F4B9B6915
:100B8C0003F004037B607B6801224FF400510220C8
:100B9C0001F04EFA4FF400533B6101237B610023BB
:100BAC00BB610223FB6107F110031946022001F01F
:100BBC00BBF800BF2037BD4680BD00BF001002400F
:100BCC0080B400AF72B600BFFEE7000080B485B001
:100BDC0000AF154B9B69144A43F001039361124B10
:100BEC009B6903F00103BB60BB680F4BDB690E4ACA
:100BFC0043F08053D3610C4BDB6903F080537B6073
:100C0C007B680A4B5B68FB60FB6823F0E063FB606E
:100C1C00FB6843F00073FB60044AFB68536000BF41
:100C2C001437BD4680BC70470010024000000140E4
:100C3C0080B588B000AF786007F1100300221A600D
:100C4C005A609A60DA607B681B68244A934241D1EF
:100C5C00234BDB69224A43F00073D361204BDB69E1
:100C6C0003F00073FB60FB681D4B9B691C4A43F04F
:100C7C00040393611A4B9B6903F00403BB60BB68CC
:100C8C004FF400633B6100237B610023BB6107F1E0
:100C9C0010031946134801F047F84FF480533B6199
:100CAC0002237B610323FB6107F1100319460D48F6
:100CBC0001F03AF800220021142000F0FEFF14206D
:100CCC0001F017F800220021152000F0F6FF152086
:100CDC0001F00FF800BF2037BD4680BD0064004016
:100CEC00001002400008014080B400AFFEE780B461
:100CFC0000AFFEE780B400AFFEE780B400AFFEE7C4
:100D0C0080B400AFFEE780B400AF00BFBD4680BC2E
:100D1C00704780B400AF00BFBD4680BC704780B444
:100D2C0000AF00BFBD4680BC7047000080B500AF6F
:100D3C0000F090F8034B1B680133024A136000BFAC
:100D4C0080BD00BF9C01002080B500AF024800F0C0
:100D5C00BAFC00BF80BD00BF0801002080B500AF09
:100D6C00024800F0B0FC00BF80BD00BF08010020AD
:100D7C0080B400AF00BFBD4680BC7047FFF7F8FFE2
:100D8C000B480C490C4A002302E0D458C4500433DD
:100D9C00C4188C42F9D3094A094C002301E01360B2
:100DAC000432A242FBD301F05BFDFFF789FD7047D3
:100DBC00000000201C000020FC2800081C00002063
:100DCC001C020020FEE7000080B500AF084B1B683A
:100DDC00074A43F010031360032000F063FF0F2059
:100DEC0000F008F8FFF7F2FE0023184680BD00BFA4
:100DFC000020024080B582B000AF7860124B1A68B8
:100E0C00124B1B7819464FF47A73B3FBF1F3B2FB18
:100E1C00F3F3184600F07BFF0346002B01D00123AF
:100E2C000EE07B680F2B0AD8002279684FF0FF3058
:100E3C0000F043FF064A7B681360002300E00123A7
:100E4C0018460837BD4680BD100000201800002051
:100E5C001400002080B400AF054B1B781A46054BDC
:100E6C001B681344034A136000BFBD4680BC704727
:100E7C00180000201802002080B400AF024B1B6841
:100E8C001846BD4680BC70471802002080B584B05F
:100E9C0000AF78607B68002B01D10123EDE07B680B
:100EAC0093F82030DBB2002B02D17868FFF7C0FE3C
:100EBC007B681B681A687B681B6842F001021A6029
:100ECC00FFF7DAFFF86012E0FFF7D6FF0246FB6887
:100EDC00D31A0A2B0BD97B685B6A43F400327B680C
:100EEC005A627B68052283F820200123C5E07B68C9
:100EFC001B685B6803F00103002BE5D07B681B6863
:100F0C001A687B681B6822F002021A60FFF7B4FFB4
:100F1C00F86012E0FFF7B0FF0246FB68D31A0A2B09
:100F2C000BD97B685B6A43F400327B685A627B683E
:100F3C00052283F8202001239FE07B681B685B68F7
:100F4C0003F00203002BE5D17B681B7E012B08D13B
:100F5C007B681B681A687B681B6842F080021A6009
:100F6C0007E07B681B681A687B681B6822F08002AC
:100F7C001A607B685B7E012B08D17B681B681A6842
:100F8C007B681B6842F040021A6007E07B681B68B4
:100F9C001A687B681B6822F040021A607B689B7E93
:100FAC00012B08D17B681B681A687B681B6842F0B0
:100FBC0020021A6007E07B681B681A687B681B6854
:100FCC0022F020021A607B68DB7E012B08D17B6843
:100FDC001B681A687B681B6822F010021A6007E015
:100FEC007B681B681A687B681B6842F010021A60E9
:100FFC007B681B7F012B08D17B681B681A687B6898
:10100C001B6842F008021A6007E07B681B681A68CC
:10101C007B681B6822F008021A607B685B7F012BDF
:10102C0008D17B681B681A687B681B6842F0040255
:10103C001A6007E07B681B681A687B681B6822F0E3
:10104C0004021A607B689A687B68DB681A437B68C9
:10105C001B691A437B685B6942EA03017B685B6826
:10106C005A1E7B681B680A43DA617B6800225A624D
:10107C007B68012283F82020002318461037BD46D8
:10108C0080BD80B487B000AF786039607B681B6826
:10109C007B617B6893F82030FB74FB7C012B03D0C5
:1010AC00FB7C022B40F0AA807B69D3F8003243F022
:1010BC0001027B69C3F800223B685B6903F01F03E4
:1010CC00012202FA03F3FB607B69D3F81C22FB6854
:1010DC00DB431A407B69C3F81C223B68DB69002B9D
:1010EC0023D17B69D3F80C22FB68DB431A407B6964
:1010FC00C3F80C223B68DB6819043B685B689BB245
:10110C003A68526919437B69483243F832103B689C
:10111C009B6819043B681B689AB23B685B690A437D
:10112C0079694833DB000B445A603B68DB69012B5F
:10113C0022D17B69D3F80C22FB681A437B69C3F874
:10114C000C223B681B6819043B685B689BB23A68CD
:10115C00526919437B69483243F832103B689B68EB
:10116C0019043B68DB689AB23B685B690A4379698E
:10117C004833DB000B445A603B689B69002B09D158
:10118C007B69D3F80422FB68DB431A407B69C3F804
:10119C00042207E07B69D3F80422FB681A437B69BD
:1011AC00C3F804223B681B69002B09D17B69D3F877
:1011BC001422FB68DB431A407B69C3F8142207E056
:1011CC007B69D3F81422FB681A437B69C3F8142299
:1011DC003B681B6A012B07D17B69D3F81C22FB6887
:1011EC001A437B69C3F81C227B69D3F8003223F0C5
:1011FC0001027B69C3F80022002306E07B685B6A6E
:10120C0043F480227B685A62012318461C37BD4682
:10121C0080BC704780B584B000AF78607B6893F871
:10122C002030DBB2012B2ED17B68022283F82020E8
:10123C007B681B681A687B681B6822F001021A60C5
:10124C00FFF71AFEF86012E0FFF716FE0246FB6885
:10125C00D31A0A2B0BD97B685B6A43F400327B6888
:10126C005A627B68052283F82020012312E07B68F8
:10127C001B685B6803F00103002BE5D17B6800223F
:10128C005A62002306E07B685B6A43F400227B68A9
:10129C005A62012318461037BD4680BD80B489B010
:1012AC0000AFF860B9607A603B60FB6893F820305F
:1012BC00FB77FB681B689B68BB61FB7F012B03D032
:1012CC00FB7F022B40F0AD80BB6903F08063002BE9
:1012DC000AD1BB6903F00063002B05D1BB6903F095
:1012EC008053002B00F09580BB691B0E03F00303A9
:1012FC007B6101227B699A403B681A60BB689B68E2
:10130C00002B0DD1BB681B685A05BB68DB68F968FC
:10131C0009681A437B6918331B010B441A600FE0F0
:10132C00BB685B68DA00BB689B681A43BB68DB6808
:10133C00F96809681A437B6918331B010B441A605E
:10134C00FB681968BB681A697B6918331B010B446D
:10135C0004331A60BB681B7D012B11D1FB681A6822
:10136C007B6918331B01134404331B68FA6811683A
:10137C0043F480727B6918331B010B4404331A60ED
:10138C007B6807331B781A067B6806331B781B04B3
:10139C001A437B6805331B781B0213437A680432AB
:1013AC0012781046FA68116843EA00027B691B0147
:1013BC000B4403F5C6731A607B6803331B781A065B
:1013CC007B6802331B781B041A437B6801331B7840
:1013DC001B0213437A6812781046FA68116843EAC4
:1013EC0000027B691B010B4403F5C4731A60FB6894
:1013FC001A687B6918331B0113441B68FA6811685F
:10140C0043F001027B6918331B010B441A60002363
:10141C000EE0FB685B6A43F40012FB685A6201231E
:10142C0006E0FB685B6A43F48022FB685A62012386
:10143C0018462437BD4680BC704780B487B000AFD7
:10144C00F860B9607A603B60FB6893F82030FB75FC
:10145C00FB7D012B03D0FB7D022B40F00381BB688D
:10146C00002B0ED1FB681B68DB6803F00303002B19
:10147C0016D1FB685B6A43F40012FB685A620123C5
:10148C00F7E0FB681B681B6903F00303002B07D113
:10149C00FB685B6A43F40012FB685A620123E8E0C4
:1014AC00FB681A68BB681B331B0113441B6803F0F1
:1014BC0004027B689A607B689B68002B0CD1FB68EC
:1014CC001A68BB681B331B0113441B685B0DC3F309
:1014DC000A027B681A600BE0FB681A68BB681B3356
:1014EC001B0113441B68DB0823F060427B685A60C5
:1014FC00FB681A68BB681B331B0113441B6803F0A1
:10150C0002027B68DA60FB681A68BB681B331B013C
:10151C00134404331B6803F00803002B03D07B68CF
:10152C0008221A610BE0FB681A68BB681B331B01AD
:10153C00134404331B6803F00F027B681A61FB68C9
:10154C001A68BB681B331B01134404331B681B0A4A
:10155C00DAB27B689A61FB681A68BB681B331B01A3
:10156C00134404331B681B0C9AB27B685A61FB68EA
:10157C001A68BB681B01134403F5DC731B68DAB2F1
:10158C003B681A70FB681A68BB681B01134403F5AF
:10159C00DC731B681A0A3B680133D2B21A70FB6801
:1015AC001A68BB681B01134403F5DC731B681A0C27
:1015BC003B680233D2B21A70FB681A68BB681B0115
:1015CC00134403F5DC731B681A0E3B680333D2B269
:1015DC001A70FB681A68BB681B01134403F5DE73B1
:1015EC001A683B680433D2B21A70FB681A68BB687D
:1015FC001B01134403F5DE731B681A0A3B680533A1
:10160C00D2B21A70FB681A68BB681B01134403F54D
:10161C00DE731B681A0C3B680633D2B21A70FB6877
:10162C001A68BB681B01134403F5DE731B681A0EA2
:10163C003B680733D2B21A70BB68002B08D1FB6829
:10164C001B68DA68FB681B6842F02002DA6007E06E
:10165C00FB681B681A69FB681B6842F020021A6160
:10166C00002306E0FB685B6A43F48022FB685A6245
:10167C00012318461C37BD4680BC704780B485B02A
:10168C0000AF786039607B6893F82030FB73FB7B8C
:10169C00012B02D0FB7B022B09D17B681B6859699B
:1016AC007B681B683A680A435A61002306E07B6832
:1016BC005B6A43F480227B685A6201231846143714
:1016CC00BD4680BC704780B58AB000AF78600023FF
:1016DC007B627B681B685B693B627B681B685B6831
:1016EC00FB617B681B689B68BB617B681B68DB6864
:1016FC007B617B681B681B693B617B681B689B6912
:10170C00FB603B6A03F00103002B7CD0BB6903F048
:10171C000103002B23D07B681B6801229A60BB69F4
:10172C0003F00203002B03D0786800F083F916E075
:10173C00BB6903F00403002B04D07B6A43F4006301
:10174C007B620CE0BB6903F00803002B04D07B6ABE
:10175C0043F480537B6202E0786800F086F9BB6941
:10176C0003F48073002B24D07B681B684FF48072C9
:10177C009A60BB6903F40073002B03D0786800F007
:10178C0062F916E0BB6903F48063002B04D07B6A1A
:10179C0043F400537B620CE0BB6903F40063002B41
:1017AC0004D07B6A43F480437B6202E0786800F0EB
:1017BC0065F9BB6903F48033002B24D07B681B686C
:1017CC004FF480329A60BB6903F40033002B03D0D2
:1017DC00786800F041F916E0BB6903F48023002B14
:1017EC0004D07B6A43F400437B620CE0BB6903F4D6
:1017FC000023002B04D07B6A43F480337B6202E02D
:10180C00786800F044F93B6A03F00803002B0CD015
:10181C007B6903F01003002B07D07B6A43F4007341
:10182C007B627B681B681022DA603B6A03F004035E
:10183C00002B0BD07B6903F00803002B06D07B68D0
:10184C001B680822DA60786800F02AF93B6A03F01A
:10185C000203002B09D07B681B68DB6803F00303D1
:10186C00002B02D07868FFF70DF83B6A03F04003B9
:10187C00002B0CD03B6903F01003002B07D07B6AC4
:10188C0043F480637B627B681B6810221A613B6A9D
:10189C0003F02003002B0BD03B6903F00803002B53
:1018AC0006D07B681B6808221A61786800F00AF978
:1018BC003B6A03F01003002B09D07B681B681B6983
:1018CC0003F00303002B02D0786800F0F2F83B6AB7
:1018DC0003F40033002B0BD0FB6903F01003002B37
:1018EC0006D07B681B6810225A60786800F0F3F809
:1018FC003B6A03F48033002B0BD0FB6903F0080325
:10190C00002B06D07B681B6808225A60786800F0B0
:10191C00EBF83B6A03F40043002B7BD0FB6903F02C
:10192C000403002B72D03B6A03F48073002B08D0A5
:10193C00FB6803F00103002B03D07B6A43F0010327
:10194C007B623B6A03F40073002B08D0FB6803F046
:10195C000203002B03D07B6A43F002037B623B6AD9
:10196C0003F48063002B08D0FB6803F00403002B06
:10197C0003D07B6A43F004037B623B6A03F400638D
:10198C00002B43D0FB6803F07003002B3ED0FB68A8
:10199C0003F07003602B2BD0602B2ED8502B22D051
:1019AC00502B2AD8402B19D0402B26D8302B10D0B6
:1019BC00302B22D8102B02D0202B05D01DE07B6AB7
:1019CC0043F008037B6219E07B6A43F010037B62EF
:1019DC0014E07B6A43F020037B620FE07B6A43F0E8
:1019EC0040037B620AE07B6A43F080037B6205E084
:1019FC007B6A43F480737B6200E000BF7B681B68EA
:101A0C009A697B681B6822F070029A617B681B687C
:101A1C0004225A607B6A002B08D07B685A6A7B6A66
:101A2C001A437B685A62786800F067F800BF283761
:101A3C00BD4680BD80B483B000AF786000BF0C376A
:101A4C00BD4680BC704780B483B000AF786000BFE7
:101A5C000C37BD4680BC704780B483B000AF786053
:101A6C0000BF0C37BD4680BC704780B483B000AF5C
:101A7C00786000BF0C37BD4680BC704780B483B023
:101A8C0000AF786000BF0C37BD4680BC704780B497
:101A9C0083B000AF786000BF0C37BD4680BC704788
:101AAC0080B483B000AF786000BF0C37BD4680BCFB
:101ABC00704780B483B000AF786000BF0C37BD4670
:101ACC0080BC704780B483B000AF786000BF0C3727
:101ADC00BD4680BC704780B483B000AF786000BF57
:101AEC000C37BD4680BC704780B483B000AF7860C3
:101AFC0000BF0C37BD4680BC704780B483B000AFCC
:101B0C00786000BF0C37BD4680BC704780B485B090
:101B1C0000AF78607B6803F00703FB600C4BDB685D
:101B2C00BB60BA684FF6FF031340BB60FB681A0238
:101B3C00BB68134343F0BF6343F40033BB60044AF8
:101B4C00BB68D36000BF1437BD4680BC704700BF74
:101B5C0000ED00E080B400AF044BDB681B0A03F01F
:101B6C0007031846BD4680BC704700BF00ED00E07F
:101B7C0080B483B000AF0346FB7197F90730002B9C
:101B8C000BDBFB7903F01F02064997F907305B0961
:101B9C00012000FA02F241F8232000BF0C37BD46A9
:101BAC0080BC704700E100E080B483B000AF034616
:101BBC003960FB7197F90730002B0ADB3B68DAB20E
:101BCC000C4997F907301201D2B20B4483F8002369
:101BDC000AE03B68DAB20849FB7903F00F03043BD7
:101BEC001201D2B20B441A7600BF0C37BD4680BC32
:101BFC00704700BF00E100E000ED00E080B489B068
:101C0C0000AFF860B9607A60FB6803F00703FB6112
:101C1C00FB69C3F10703042B28BF0423BB61FB69D9
:101C2C000433062B02D9FB69033B00E000237B61E4
:101C3C004FF0FF32BB6902FA03F3DA43BB681A4078
:101C4C007B699A404FF0FF317B6901FA03F3D9436A
:101C5C007B680B40134318462437BD4680BC704745
:101C6C0080B582B000AF78607B68013BB3F1807FB8
:101C7C0001D301230FE00A4A7B68013B53600F211B
:101C8C004FF0FF30FFF790FF054B00229A60044B9A
:101C9C0007221A60002318460837BD4680BD00BFD6
:101CAC0010E000E080B582B000AF78607868FFF794
:101CBC002DFF00BF0837BD4680BD80B586B000AF94
:101CCC000346B9607A60FB7300237B61FFF742FF28
:101CDC0078617A68B9687869FFF790FF024697F9DE
:101CEC000F3011461846FFF75FFF00BF1837BD468F
:101CFC0080BD80B582B000AF0346FB7197F9073009
:101D0C001846FFF735FF00BF0837BD4680BD80B5CC
:101D1C0082B000AF78607868FFF7A2FF03461846E0
:101D2C000837BD4680BD000080B48BB000AF786032
:101D3C00396000237B6200233B6269E101227B6AEC
:101D4C0002FA03F3FB613B681B68FA691340BB6141
:101D5C00BA69FB699A4240F058813B685B689A4AC1
:101D6C0093425ED0984A934275D8984A934258D081
:101D7C00964A93426FD8964A934252D0944A9342D1
:101D8C0069D8944A93424CD0924A934263D8924A6F
:101D9C00934246D0904A93425DD8122B2AD8122BEC
:101DAC0059D801A252F823F02F1E0008091E000872
:101DBC001B1E00085D1E0008631E0008631E000841
:101DCC00631E0008631E0008631E0008631E0008E3
:101DDC00631E0008631E0008631E0008631E0008D3
:101DEC00631E0008631E0008631E0008111E000815
:101DFC00251E0008794A934213D02CE03B68DB681F
:101E0C003B6229E03B68DB6804333B6224E03B68BF
:101E1C00DB6808333B621FE03B68DB680C333B62DA
:101E2C001AE03B689B68002B02D104233B6213E051
:101E3C003B689B68012B05D108233B627B68FA69E0
:101E4C001A6109E008233B627B68FA695A6103E076
:101E5C0000233B6200E000BFBB69FF2B01D87B680D
:101E6C0001E07B6804337B61BB69FF2B02D87B6A82
:101E7C009B0002E07B6A083B9B003B617B691A6814
:101E8C000F213B6901FA03F3DB431A40396A3B69C2
:101E9C0001FA03F31A437B691A603B685B6803F031
:101EAC008053002B00F0B1804D4B9B694C4A43F0A2
:101EBC00010393614A4B9B6903F00103BB60BB6850
:101ECC00484A7B6A9B08023352F82330FB607B6ADA
:101EDC0003F003039B000F2202FA03F3DB43FA68BF
:101EEC001340FB607B68404A934213D07B683F4AA7
:101EFC0093420DD07B683E4A934207D07B683D4AA3
:101F0C00934201D1032306E0042304E0022302E000
:101F1C00012300E000237A6A02F00302920093404E
:101F2C00FA681343FB602F497B6A9B080233FA68FB
:101F3C0041F823203B685B6803F48013002B06D028
:101F4C002D4B9A682C49BB6913438B6006E02A4BD6
:101F5C009A68BB69DB43284913408B603B685B681C
:101F6C0003F40013002B06D0234BDA682249BB691B
:101F7C001343CB6006E0204BDA68BB69DB431E4998
:101F8C001340CB603B685B6803F40033002B06D036
:101F9C00194B5A681849BB6913434B6006E0164B42
:101FAC005A68BB69DB43144913404B603B685B6860
:101FBC0003F48033002B21D00F4B1A680E49BB69F8
:101FCC0013430B6021E000BF000032100000311001
:101FDC00000022100000211000001210000011104F
:101FEC00001002400000014000080140000C0140BC
:101FFC000010014000140140000401400B4B1A6812
:10200C00BB69DB43094913400B607B6A01337B627C
:10201C003B681A687B6A22FA03F3002B7FF48EAEBE
:10202C0000BF00BF2C37BD4680BC70470004014088
:10203C0080B483B000AF78600B467B8013467B7016
:10204C007B78002B03D07A887B681A6103E07B884D
:10205C001A047B681A6100BF0C37BD4680BC704700
:10206C0080B485B000AF78600B467B807B68DB6802
:10207C00FB607A88FB6813401A04FB68D9437B88A1
:10208C000B401A437B681A6100BF1437BD4680BCF5
:10209C007047000080B586B000AF78607B68002B7D
:1020AC0001D1012372E27B681B6803F00103002B52
:1020BC0000F08780924B5B6803F00C03042B0CD070
:1020CC008F4B5B6803F00C03082B12D18C4B5B68B5
:1020DC0003F48033B3F5803F0BD1894B1B6803F4B9
:1020EC000033002B6CD07B685B68002B68D101231C
:1020FC004CE27B685B68B3F5803F06D1804B1B6874
:10210C007F4A43F4803313602EE07B685B68002BBE
:10211C000CD17B4B1B687A4A23F480331360784BC9
:10212C001B68774A23F4802313601DE07B685B688F
:10213C00B3F5A02F0CD1724B1B68714A43F480236A
:10214C0013606F4B1B686E4A43F4803313600BE0D3
:10215C006B4B1B686A4A23F480331360684B1B6813
:10216C00674A23F4802313607B685B68002B13D0D1
:10217C00FEF782FE386108E0FEF77EFE02463B6900
:10218C00D31A642B01D9032300E25D4B1B6803F4C3
:10219C000033002BF0D014E0FEF76EFE386108E03F
:1021AC00FEF76AFE02463B69D31A642B01D903235E
:1021BC00ECE1534B1B6803F40033002BF0D100E02F
:1021CC0000BF7B681B6803F00203002B63D04C4BF1
:1021DC005B6803F00C03002B0BD0494B5B6803F0DE
:1021EC000C03082B1CD1464B5B6803F48033002B8B
:1021FC0016D1434B1B6803F00203002B05D07B6800
:10220C001B69012B01D00123C0E13D4B1B6823F05E
:10221C00F8027B685B69DB00394913430B603AE0D9
:10222C007B681B69002B20D0364B01221A60FEF70D
:10223C0023FE386108E0FEF71FFE02463B69D31A05
:10224C00022B01D90323A1E12D4B1B6803F00203E0
:10225C00002BF0D02A4B1B6823F0F8027B685B69DB
:10226C00DB00274913430B6015E0264B00221A6054
:10227C00FEF702FE386108E0FEF7FEFD02463B6900
:10228C00D31A022B01D9032380E11D4B1B6803F0E9
:10229C000203002BF0D17B681B6803F00803002BB2
:1022AC003AD07B689B69002B19D0174B01221A601E
:1022BC00FEF7E2FD386108E0FEF7DEFD02463B6901
:1022CC00D31A022B01D9032360E10D4B5B6A03F097
:1022DC000203002BF0D0012000F09CFA1CE00A4B0A
:1022EC0000221A60FEF7C8FD38610FE0FEF7C4FD4E
:1022FC0002463B69D31A022B08D9032346E100BFDF
:10230C00001002400000424280044242924B5B6A41
:10231C0003F00203002BE9D17B681B6803F0040374
:10232C00002B00F0A6800023FB758B4BDB6903F0C0
:10233C008053002B0DD1884BDB69874A43F08053C7
:10234C00D361854BDB6903F08053BB60BB68012311
:10235C00FB75824B1B6803F48073002B18D17F4BE9
:10236C001B687E4A43F480731360FEF785FD386169
:10237C0008E0FEF781FD02463B69D31A642B01D9B4
:10238C00032303E1754B1B6803F48073002BF0D01F
:10239C007B68DB68012B06D16F4B1B6A6E4A43F0DE
:1023AC00010313622DE07B68DB68002B0CD16A4BB8
:1023BC001B6A694A23F001031362674B1B6A664A66
:1023CC0023F0040313621CE07B68DB68052B0CD143
:1023DC00614B1B6A604A43F0040313625E4B1B6A39
:1023EC005D4A43F0010313620BE05B4B1B6A5A4AD4
:1023FC0023F001031362584B1B6A574A23F0040362
:10240C0013627B68DB68002B15D0FEF735FD386155
:10241C000AE0FEF731FD02463B69D31A41F28832DD
:10242C00934201D90323B1E04B4B1B6A03F0020327
:10243C00002BEED014E0FEF71FFD38610AE0FEF72A
:10244C001BFD02463B69D31A41F28832934201D9F3
:10245C0003239BE0404B1B6A03F00203002BEED1DD
:10246C00FB7D012B05D13C4BDB693B4A23F08053B0
:10247C00D3617B68DB69002B00F08780364B5B688F
:10248C0003F00C03082B61D07B68DB69022B46D16F
:10249C00334B00221A60FEF7EFFC386108E0FEF7C0
:1024AC00EBFC02463B69D31A022B01D903236DE0E6
:1024BC00294B1B6803F00073002BF0D17B681B6A5F
:1024CC00B3F5803F08D1244B5B6823F400327B6862
:1024DC009B68214913434B601F4B5B6823F47412B8
:1024EC007B68196A7B685B6A0B431B4913434B601F
:1024FC001B4B01221A60FEF7BFFC386108E0FEF7A7
:10250C00BBFC02463B69D31A022B01D903233DE0E5
:10251C00114B1B6803F00073002BF0D035E0104B0F
:10252C0000221A60FEF7A8FC386108E0FEF7A4FC54
:10253C0002463B69D31A022B01D9032326E0064B32
:10254C001B6803F00073002BF0D11EE07B68DB6985
:10255C00012B07D1012319E000100240007000404C
:10256C00600042420B4B5B68FB60FB6803F48032FB
:10257C007B681B6A9A4206D1FB6803F470127B6875
:10258C005B6A9A4201D0012300E0002318461837F9
:10259C00BD4680BD0010024080B584B000AF7860AD
:1025AC0039607B68002B01D10123D0E06A4B1B689A
:1025BC0003F007033A689A4210D9674B1B6823F063
:1025CC00070265493B6813430B60634B1B6803F0C0
:1025DC0007033A689A4201D00123B8E07B681B6874
:1025EC0003F00203002B20D07B681B6803F004036C
:1025FC00002B05D0594B5B68584A43F4E063536099
:10260C007B681B6803F00803002B05D0534B5B68F9
:10261C00524A43F460535360504B5B6823F0F00212
:10262C007B689B684D4913434B607B681B6803F0C8
:10263C000103002B40D07B685B68012B07D1474B13
:10264C001B6803F40033002B15D101237FE07B685A
:10265C005B68022B07D1414B1B6803F00073002B06
:10266C0009D1012373E03D4B1B6803F00203002BDF
:10267C0001D101236BE0394B5B6823F003027B68CB
:10268C005B68364913434B60FEF7F6FBF8600AE0D3
:10269C00FEF7F2FB0246FB68D31A41F288329342F2
:1026AC0001D9032353E02D4B5B6803F00C027B68CC
:1026BC005B689B009A42EBD1274B1B6803F0070326
:1026CC003A689A4210D2244B1B6823F00702224925
:1026DC003B6813430B60204B1B6803F007033A68FD
:1026EC009A4201D0012332E07B681B6803F004039B
:1026FC00002B08D0194B5B6823F4E0627B68DB6825
:10270C00164913434B607B681B6803F00803002BCE
:10271C0009D0124B5B6823F460527B681B69DB00A9
:10272C000E4913434B6000F021F802460B4B5B68DB
:10273C001B0903F00F030A49CB5C22FA03F3094A85
:10274C001360094B1B681846FEF754FB0023184610
:10275C001037BD4680BD00BF002002400010024073
:10276C00D0280008100000201400002080B487B08E
:10277C0000AF0023FB600023BB6000237B610023C0
:10278C007B6000233B611E4B5B68FB60FB6803F0C6
:10279C000C03042B02D0082B03D027E0194B3B6110
:1027AC0027E0FB689B0C03F00F03174AD35C7B609C
:1027BC00FB6803F48033002B10D0114B5B685B0C6F
:1027CC0003F00103114AD35CBB607B680D4A03FB29
:1027DC0002F2BB68B2FBF3F37B6104E07B680C4A4A
:1027EC0002FB03F37B617B693B6102E0054B3B61C0
:1027FC0000BF3B6918461C37BD4680BC704700BF04
:10280C000010024000127A00E0280008F0280008AE
:10281C0000093D0080B485B000AF78600A4B1B689E
:10282C000A4AA2FB03235B0A7A6802FB03F3FB60F0
:10283C0000BFFB685A1EFA60002BF9D100BF00BF25
:10284C001437BD4680BC704710000020D34D621079
:10285C0003460244934200D1704703F8011BF9E789
:10286C0070B500260C4D0D4C641BA410A64209D16A
:10287C0000F01AF800260A4D0A4C641BA410A6425C
:10288C0005D170BD55F8043B98470136EEE755F875
:10289C00043B98470136F2E7F4280008F4280008B6
:1028AC00F4280008F8280008F8B500BFF8BC08BCEC
:1028BC009E467047F8B500BFF8BC08BC9E467047F2
:1028CC006F6B000000000000000000000102030418
:1028DC000607080902030405060708090A0B0C0D74
:0828EC000E0F101001020000A4
:0428F40031010008A6
:0428F8000D010008C6
:1028FC00000000080100000005FA000000000000C4
:0C290C000024F400100000000100000096
:0400000508000D8959
:00000001FF
